{
  "address": "0xbA217Be6dd3307D0A30c66503Ca4c5D3513828C0",
  "abi": [
    {
      "inputs": [
        {
          "internalType": "address",
          "name": "_aliasContract",
          "type": "address"
        },
        {
          "internalType": "address",
          "name": "_router",
          "type": "address"
        }
      ],
      "stateMutability": "nonpayable",
      "type": "constructor"
    },
    {
      "inputs": [
        {
          "internalType": "address",
          "name": "router",
          "type": "address"
        }
      ],
      "name": "InvalidRouter",
      "type": "error"
    },
    {
      "anonymous": false,
      "inputs": [
        {
          "indexed": true,
          "internalType": "bytes32",
          "name": "id",
          "type": "bytes32"
        },
        {
          "indexed": true,
          "internalType": "address",
          "name": "account",
          "type": "address"
        },
        {
          "indexed": false,
          "internalType": "string",
          "name": "_alias",
          "type": "string"
        },
        {
          "indexed": false,
          "internalType": "string",
          "name": "_avatarURI",
          "type": "string"
        }
      ],
      "name": "AliasEvent",
      "type": "event"
    },
    {
      "anonymous": false,
      "inputs": [
        {
          "indexed": true,
          "internalType": "bytes32",
          "name": "studio_id",
          "type": "bytes32"
        },
        {
          "indexed": true,
          "internalType": "string",
          "name": "studioName",
          "type": "string"
        },
        {
          "indexed": false,
          "internalType": "string",
          "name": "thumbnailURI",
          "type": "string"
        },
        {
          "indexed": false,
          "internalType": "string",
          "name": "avatarURI",
          "type": "string"
        },
        {
          "indexed": false,
          "internalType": "string",
          "name": "chain",
          "type": "string"
        },
        {
          "indexed": false,
          "internalType": "string",
          "name": "descriptiveText",
          "type": "string"
        },
        {
          "indexed": false,
          "internalType": "string",
          "name": "creatorAlias",
          "type": "string"
        },
        {
          "indexed": false,
          "internalType": "address",
          "name": "creator",
          "type": "address"
        },
        {
          "indexed": true,
          "internalType": "address",
          "name": "studioAddress",
          "type": "address"
        },
        {
          "indexed": false,
          "internalType": "address",
          "name": "studioTokenAddress",
          "type": "address"
        },
        {
          "indexed": false,
          "internalType": "address",
          "name": "nftAddress",
          "type": "address"
        }
      ],
      "name": "StudioEvent",
      "type": "event"
    },
    {
      "inputs": [],
      "name": "_getAlias",
      "outputs": [
        {
          "internalType": "string",
          "name": "",
          "type": "string"
        }
      ],
      "stateMutability": "view",
      "type": "function"
    },
    {
      "inputs": [],
      "name": "_getAliasAvatar",
      "outputs": [
        {
          "internalType": "string",
          "name": "",
          "type": "string"
        }
      ],
      "stateMutability": "view",
      "type": "function"
    },
    {
      "inputs": [],
      "name": "_isAliasSet",
      "outputs": [
        {
          "internalType": "bool",
          "name": "",
          "type": "bool"
        }
      ],
      "stateMutability": "view",
      "type": "function"
    },
    {
      "inputs": [
        {
          "internalType": "string",
          "name": "_alias",
          "type": "string"
        },
        {
          "internalType": "string",
          "name": "_avatarURI",
          "type": "string"
        }
      ],
      "name": "_setAlias",
      "outputs": [],
      "stateMutability": "nonpayable",
      "type": "function"
    },
    {
      "inputs": [],
      "name": "_studioAlias",
      "outputs": [
        {
          "internalType": "contract StudioAlias",
          "name": "",
          "type": "address"
        }
      ],
      "stateMutability": "view",
      "type": "function"
    },
    {
      "inputs": [
        {
          "internalType": "address",
          "name": "",
          "type": "address"
        }
      ],
      "name": "aliases",
      "outputs": [
        {
          "internalType": "string",
          "name": "_alias",
          "type": "string"
        },
        {
          "internalType": "string",
          "name": "_avatarURI",
          "type": "string"
        },
        {
          "internalType": "bool",
          "name": "isSet",
          "type": "bool"
        }
      ],
      "stateMutability": "view",
      "type": "function"
    },
    {
      "inputs": [
        {
          "components": [
            {
              "internalType": "bytes32",
              "name": "messageId",
              "type": "bytes32"
            },
            {
              "internalType": "uint64",
              "name": "sourceChainSelector",
              "type": "uint64"
            },
            {
              "internalType": "bytes",
              "name": "sender",
              "type": "bytes"
            },
            {
              "internalType": "bytes",
              "name": "data",
              "type": "bytes"
            },
            {
              "components": [
                {
                  "internalType": "address",
                  "name": "token",
                  "type": "address"
                },
                {
                  "internalType": "uint256",
                  "name": "amount",
                  "type": "uint256"
                }
              ],
              "internalType": "struct Client.EVMTokenAmount[]",
              "name": "destTokenAmounts",
              "type": "tuple[]"
            }
          ],
          "internalType": "struct Client.Any2EVMMessage",
          "name": "message",
          "type": "tuple"
        }
      ],
      "name": "ccipReceive",
      "outputs": [],
      "stateMutability": "nonpayable",
      "type": "function"
    },
    {
      "inputs": [],
      "name": "chain",
      "outputs": [
        {
          "internalType": "string",
          "name": "",
          "type": "string"
        }
      ],
      "stateMutability": "view",
      "type": "function"
    },
    {
      "inputs": [
        {
          "internalType": "address",
          "name": "account",
          "type": "address"
        }
      ],
      "name": "getAddressedAlias",
      "outputs": [
        {
          "internalType": "string",
          "name": "",
          "type": "string"
        }
      ],
      "stateMutability": "view",
      "type": "function"
    },
    {
      "inputs": [
        {
          "internalType": "address",
          "name": "account",
          "type": "address"
        }
      ],
      "name": "getAddressedAvatar",
      "outputs": [
        {
          "internalType": "string",
          "name": "",
          "type": "string"
        }
      ],
      "stateMutability": "view",
      "type": "function"
    },
    {
      "inputs": [
        {
          "internalType": "address",
          "name": "account",
          "type": "address"
        }
      ],
      "name": "getAlias",
      "outputs": [
        {
          "internalType": "string",
          "name": "",
          "type": "string"
        }
      ],
      "stateMutability": "view",
      "type": "function"
    },
    {
      "inputs": [
        {
          "internalType": "address",
          "name": "account",
          "type": "address"
        }
      ],
      "name": "getAliasURI",
      "outputs": [
        {
          "internalType": "string",
          "name": "",
          "type": "string"
        }
      ],
      "stateMutability": "view",
      "type": "function"
    },
    {
      "inputs": [],
      "name": "getRouter",
      "outputs": [
        {
          "internalType": "address",
          "name": "",
          "type": "address"
        }
      ],
      "stateMutability": "view",
      "type": "function"
    },
    {
      "inputs": [
        {
          "internalType": "address",
          "name": "creator",
          "type": "address"
        }
      ],
      "name": "getStudio",
      "outputs": [
        {
          "components": [
            {
              "internalType": "bytes32",
              "name": "studioId",
              "type": "bytes32"
            },
            {
              "internalType": "string",
              "name": "studioName",
              "type": "string"
            },
            {
              "internalType": "string",
              "name": "thumbnailURI",
              "type": "string"
            },
            {
              "internalType": "string",
              "name": "avatarURI",
              "type": "string"
            },
            {
              "internalType": "string",
              "name": "chain",
              "type": "string"
            },
            {
              "internalType": "string",
              "name": "descriptiveText",
              "type": "string"
            },
            {
              "internalType": "string",
              "name": "creatorAlias",
              "type": "string"
            },
            {
              "internalType": "address",
              "name": "creator",
              "type": "address"
            },
            {
              "internalType": "address",
              "name": "studioAddress",
              "type": "address"
            },
            {
              "internalType": "address",
              "name": "nftAddress",
              "type": "address"
            },
            {
              "internalType": "address",
              "name": "tokenAddress",
              "type": "address"
            }
          ],
          "internalType": "struct StudioRegister.Studio",
          "name": "",
          "type": "tuple"
        }
      ],
      "stateMutability": "view",
      "type": "function"
    },
    {
      "inputs": [
        {
          "internalType": "address",
          "name": "creator",
          "type": "address"
        }
      ],
      "name": "getStudioAddress",
      "outputs": [
        {
          "internalType": "address",
          "name": "",
          "type": "address"
        }
      ],
      "stateMutability": "view",
      "type": "function"
    },
    {
      "inputs": [
        {
          "internalType": "address",
          "name": "creator",
          "type": "address"
        }
      ],
      "name": "getStudioChain",
      "outputs": [
        {
          "internalType": "string",
          "name": "",
          "type": "string"
        }
      ],
      "stateMutability": "view",
      "type": "function"
    },
    {
      "inputs": [
        {
          "internalType": "address",
          "name": "creator",
          "type": "address"
        }
      ],
      "name": "getStudioName",
      "outputs": [
        {
          "internalType": "string",
          "name": "",
          "type": "string"
        }
      ],
      "stateMutability": "view",
      "type": "function"
    },
    {
      "inputs": [
        {
          "internalType": "address",
          "name": "creator",
          "type": "address"
        }
      ],
      "name": "getStudioNftAddress",
      "outputs": [
        {
          "internalType": "address",
          "name": "",
          "type": "address"
        }
      ],
      "stateMutability": "view",
      "type": "function"
    },
    {
      "inputs": [
        {
          "internalType": "address",
          "name": "creator",
          "type": "address"
        }
      ],
      "name": "getStudioTokenAddress",
      "outputs": [
        {
          "internalType": "address",
          "name": "",
          "type": "address"
        }
      ],
      "stateMutability": "view",
      "type": "function"
    },
    {
      "inputs": [
        {
          "internalType": "address",
          "name": "account",
          "type": "address"
        }
      ],
      "name": "isAliasSet",
      "outputs": [
        {
          "internalType": "bool",
          "name": "",
          "type": "bool"
        }
      ],
      "stateMutability": "view",
      "type": "function"
    },
    {
      "inputs": [
        {
          "internalType": "string",
          "name": "_name",
          "type": "string"
        },
        {
          "internalType": "string",
          "name": "_thumbnailURI",
          "type": "string"
        },
        {
          "internalType": "string",
          "name": "_avatarURI",
          "type": "string"
        },
        {
          "internalType": "string",
          "name": "_chain",
          "type": "string"
        },
        {
          "internalType": "string",
          "name": "_descriptiveText",
          "type": "string"
        },
        {
          "internalType": "address",
          "name": "_creator",
          "type": "address"
        },
        {
          "internalType": "address",
          "name": "_studio",
          "type": "address"
        },
        {
          "internalType": "address",
          "name": "_nft",
          "type": "address"
        },
        {
          "internalType": "address",
          "name": "_token",
          "type": "address"
        }
      ],
      "name": "logStudio",
      "outputs": [],
      "stateMutability": "nonpayable",
      "type": "function"
    },
    {
      "inputs": [
        {
          "internalType": "string",
          "name": "_alias_",
          "type": "string"
        },
        {
          "internalType": "string",
          "name": "_avatarURI_",
          "type": "string"
        }
      ],
      "name": "setAlias",
      "outputs": [],
      "stateMutability": "nonpayable",
      "type": "function"
    },
    {
      "inputs": [
        {
          "internalType": "address",
          "name": "",
          "type": "address"
        }
      ],
      "name": "studioMap",
      "outputs": [
        {
          "internalType": "bytes32",
          "name": "studioId",
          "type": "bytes32"
        },
        {
          "internalType": "string",
          "name": "studioName",
          "type": "string"
        },
        {
          "internalType": "string",
          "name": "thumbnailURI",
          "type": "string"
        },
        {
          "internalType": "string",
          "name": "avatarURI",
          "type": "string"
        },
        {
          "internalType": "string",
          "name": "chain",
          "type": "string"
        },
        {
          "internalType": "string",
          "name": "descriptiveText",
          "type": "string"
        },
        {
          "internalType": "string",
          "name": "creatorAlias",
          "type": "string"
        },
        {
          "internalType": "address",
          "name": "creator",
          "type": "address"
        },
        {
          "internalType": "address",
          "name": "studioAddress",
          "type": "address"
        },
        {
          "internalType": "address",
          "name": "nftAddress",
          "type": "address"
        },
        {
          "internalType": "address",
          "name": "tokenAddress",
          "type": "address"
        }
      ],
      "stateMutability": "view",
      "type": "function"
    },
    {
      "inputs": [
        {
          "internalType": "bytes4",
          "name": "interfaceId",
          "type": "bytes4"
        }
      ],
      "name": "supportsInterface",
      "outputs": [
        {
          "internalType": "bool",
          "name": "",
          "type": "bool"
        }
      ],
      "stateMutability": "pure",
      "type": "function"
    }
  ],
  "transactionHash": "0xcef7e55354a49642081f47f7c22920255be5b24714754d9a449bcab937ab9e52",
  "args": [
    "0xAFCad32235F8e8095A2EA12d9BB93542BE89584C",
    "0x554472a2720e5e7d5d3c817529aba05eed5f82d8"
  ],
  "numDeployments": 2,
  "solcInputHash": "fbf5f98021945a4108ccf3128d73bbad",
  "bytecode": "0x60a06040523480156200001157600080fd5b50604051620021d1380380620021d18339810160408190526200003491620000af565b806001600160a01b03811662000064576040516335fdcccd60e21b81526000600482015260240160405180910390fd5b6001600160a01b03908116608052600280546001600160a01b031916939091169290921790915550620000e7565b80516001600160a01b0381168114620000aa57600080fd5b919050565b60008060408385031215620000c357600080fd5b620000ce8362000092565b9150620000de6020840162000092565b90509250929050565b6080516120c76200010a600039600081816102f4015261111901526120c76000f3fe608060405234801561001057600080fd5b50600436106101585760003560e01c8063726bb1c9116100c35780639f5e3c681161007c5780639f5e3c68146102ea578063b0f479a1146102f2578063c3bf2ba414610318578063c763e5a11461033a578063e3f7ca5414610342578063e8145e841461035557600080fd5b8063726bb1c91461027e5780637e2706441461029e57806385572ffb146102b15780638eca77ae146102c457806399900d11146102d75780639eb500311461029e57600080fd5b80634d80dfba116101155780634d80dfba146101f55780634f8dd47614610208578063521d6dbc146102325780636316e073146102455780636438af8514610258578063677f8ac01461026b57600080fd5b806301ffc9a71461015d5780631a3cac63146101855780631bc539bc1461018d578063373d8089146101a257806344f9f978146101b757806347acdc20146101e2575b600080fd5b61017061016b3660046114a1565b610368565b60405190151581526020015b60405180910390f35b61017061039f565b610195610411565b60405161017c9190611522565b6101b56101b0366004611642565b610483565b005b6101ca6101c53660046116ca565b6104eb565b6040516001600160a01b03909116815260200161017c565b6002546101ca906001600160a01b031681565b6101b56102033660046116e7565b610503565b61021b6102163660046116ca565b610718565b60405161017c9b9a999897969594939291906117fb565b6101956102403660046116ca565b610aac565b6101956102533660046116ca565b610b5d565b6101706102663660046116ca565b610b75565b6101b5610279366004611642565b610bb2565b61029161028c3660046116ca565b610c87565b60405161017c91906118ca565b6101ca6102ac3660046116ca565b6110f6565b6101b56102bf3660046119f6565b61110e565b6101956102d23660046116ca565b611171565b6101956102e53660046116ca565b611189565b6101956111b1565b7f00000000000000000000000000000000000000000000000000000000000000006101ca565b61032b6103263660046116ca565b6111e2565b60405161017c93929190611a30565b610195611317565b6101956103503660046116ca565b6113a5565b6101956103633660046116ca565b611419565b60006001600160e01b031982166385572ffb60e01b148061039957506001600160e01b031982166301ffc9a760e01b145b92915050565b600254604051636438af8560e01b81523360048201526000916001600160a01b031690636438af8590602401602060405180830381865afa1580156103e8573d6000803e3d6000fd5b505050506040513d601f19601f8201168201806040525081019061040c9190611a68565b905090565b6002546040516314875b6f60e21b81523360048201526060916001600160a01b03169063521d6dbc906024015b600060405180830381865afa15801561045b573d6000803e3d6000fd5b505050506040513d6000823e601f3d908101601f1916820160405261040c9190810190611ad7565b60025460405163019dfe2b60e61b81526001600160a01b039091169063677f8ac0906104b59085908590600401611b0b565b600060405180830381600087803b1580156104cf57600080fd5b505af11580156104e3573d6000803e3d6000fd5b505050505050565b6000806104f783610c87565b61010001519392505050565b60008989898989898988604051602001610524989796959493929190611b39565b604051602081830303815290604052805190602001209050600061054786611419565b604080516101608101825284815260208082018f81528284018f9052606083018e9052608083018d905260a083018c905260c083018590526001600160a01b03808c1660e085018190528b82166101008601528a8216610120860152908916610140850152600090815260039092529290208151815591519293509160018201906105d29082611c57565b50604082015160028201906105e79082611c57565b50606082015160038201906105fc9082611c57565b50608082015160048201906106119082611c57565b5060a082015160058201906106269082611c57565b5060c0820151600682019061063b9082611c57565b5060e08201516007820180546001600160a01b03199081166001600160a01b03938416179091556101008401516008840180548316918416919091179055610120840151600984018054831691841691909117905561014090930151600a909201805490931691811691909117909155604051908616906106bd908d90611d16565b6040518091039020837f24792d429cc80d3624eb8b97d464e63f4bae6c07aeaf70b42efe6d067f36fa568d8d8d8d888e8c8e604051610703989796959493929190611d32565b60405180910390a45050505050505050505050565b6003602052600090815260409020805460018201805491929161073a90611bd8565b80601f016020809104026020016040519081016040528092919081815260200182805461076690611bd8565b80156107b35780601f10610788576101008083540402835291602001916107b3565b820191906000526020600020905b81548152906001019060200180831161079657829003601f168201915b5050505050908060020180546107c890611bd8565b80601f01602080910402602001604051908101604052809291908181526020018280546107f490611bd8565b80156108415780601f1061081657610100808354040283529160200191610841565b820191906000526020600020905b81548152906001019060200180831161082457829003601f168201915b50505050509080600301805461085690611bd8565b80601f016020809104026020016040519081016040528092919081815260200182805461088290611bd8565b80156108cf5780601f106108a4576101008083540402835291602001916108cf565b820191906000526020600020905b8154815290600101906020018083116108b257829003601f168201915b5050505050908060040180546108e490611bd8565b80601f016020809104026020016040519081016040528092919081815260200182805461091090611bd8565b801561095d5780601f106109325761010080835404028352916020019161095d565b820191906000526020600020905b81548152906001019060200180831161094057829003601f168201915b50505050509080600501805461097290611bd8565b80601f016020809104026020016040519081016040528092919081815260200182805461099e90611bd8565b80156109eb5780601f106109c0576101008083540402835291602001916109eb565b820191906000526020600020905b8154815290600101906020018083116109ce57829003601f168201915b505050505090806006018054610a0090611bd8565b80601f0160208091040260200160405190810160405280929190818152602001828054610a2c90611bd8565b8015610a795780601f10610a4e57610100808354040283529160200191610a79565b820191906000526020600020905b815481529060010190602001808311610a5c57829003601f168201915b505050600784015460088501546009860154600a9096015494956001600160a01b0392831695918316945082169250168b565b6001600160a01b038116600090815260208190526040812060010180546060929190610ad790611bd8565b80601f0160208091040260200160405190810160405280929190818152602001828054610b0390611bd8565b8015610b505780601f10610b2557610100808354040283529160200191610b50565b820191906000526020600020905b815481529060010190602001808311610b3357829003601f168201915b5093979650505050505050565b60606000610b6a83610c87565b602001519392505050565b6001600160a01b03811660009081526020819052604081206002015460ff168015610ba35750600192915050565b50600092915050565b50919050565b6000338383604051602001610bc993929190611dc4565b60408051601f198184030181528282528051602091820120606084018352868452838201869052600184840152336000908152918290529190208251919350908190610c159082611c57565b5060208201516001820190610c2a9082611c57565b50604091820151600291909101805460ff191691151591909117905551339082907f1f71d752a2779b67ee7d15258333a53411a453bef4f43588361ab05324997dfd90610c7a9087908790611b0b565b60405180910390a3505050565b610d0b6040518061016001604052806000801916815260200160608152602001606081526020016060815260200160608152602001606081526020016060815260200160006001600160a01b0316815260200160006001600160a01b0316815260200160006001600160a01b0316815260200160006001600160a01b031681525090565b600060036000846001600160a01b03166001600160a01b031681526020019081526020016000206040518061016001604052908160008201548152602001600182018054610d5890611bd8565b80601f0160208091040260200160405190810160405280929190818152602001828054610d8490611bd8565b8015610dd15780601f10610da657610100808354040283529160200191610dd1565b820191906000526020600020905b815481529060010190602001808311610db457829003601f168201915b50505050508152602001600282018054610dea90611bd8565b80601f0160208091040260200160405190810160405280929190818152602001828054610e1690611bd8565b8015610e635780601f10610e3857610100808354040283529160200191610e63565b820191906000526020600020905b815481529060010190602001808311610e4657829003601f168201915b50505050508152602001600382018054610e7c90611bd8565b80601f0160208091040260200160405190810160405280929190818152602001828054610ea890611bd8565b8015610ef55780601f10610eca57610100808354040283529160200191610ef5565b820191906000526020600020905b815481529060010190602001808311610ed857829003601f168201915b50505050508152602001600482018054610f0e90611bd8565b80601f0160208091040260200160405190810160405280929190818152602001828054610f3a90611bd8565b8015610f875780601f10610f5c57610100808354040283529160200191610f87565b820191906000526020600020905b815481529060010190602001808311610f6a57829003601f168201915b50505050508152602001600582018054610fa090611bd8565b80601f0160208091040260200160405190810160405280929190818152602001828054610fcc90611bd8565b80156110195780601f10610fee57610100808354040283529160200191611019565b820191906000526020600020905b815481529060010190602001808311610ffc57829003601f168201915b5050505050815260200160068201805461103290611bd8565b80601f016020809104026020016040519081016040528092919081815260200182805461105e90611bd8565b80156110ab5780601f10611080576101008083540402835291602001916110ab565b820191906000526020600020905b81548152906001019060200180831161108e57829003601f168201915b505050918352505060078201546001600160a01b039081166020830152600883015481166040830152600983015481166060830152600a909201549091166080909101529392505050565b60008061110283610c87565b61012001519392505050565b336001600160a01b037f0000000000000000000000000000000000000000000000000000000000000000161461115d576040516335fdcccd60e21b815233600482015260240160405180910390fd5b61116e61116982611ed5565b61144c565b50565b6060600061117e83610c87565b608001519392505050565b6001600160a01b038116600090815260208190526040812080546060929190610ad790611bd8565b6002546040516399900d1160e01b81523360048201526060916001600160a01b0316906399900d119060240161043e565b6000602081905290815260409020805481906111fd90611bd8565b80601f016020809104026020016040519081016040528092919081815260200182805461122990611bd8565b80156112765780601f1061124b57610100808354040283529160200191611276565b820191906000526020600020905b81548152906001019060200180831161125957829003601f168201915b50505050509080600101805461128b90611bd8565b80601f01602080910402602001604051908101604052809291908181526020018280546112b790611bd8565b80156113045780601f106112d957610100808354040283529160200191611304565b820191906000526020600020905b8154815290600101906020018083116112e757829003601f168201915b5050506002909301549192505060ff1683565b6001805461132490611bd8565b80601f016020809104026020016040519081016040528092919081815260200182805461135090611bd8565b801561139d5780601f106113725761010080835404028352916020019161139d565b820191906000526020600020905b81548152906001019060200180831161138057829003601f168201915b505050505081565b6002546040516314875b6f60e21b81526001600160a01b038381166004830152606092169063521d6dbc906024015b600060405180830381865afa1580156113f1573d6000803e3d6000fd5b505050506040513d6000823e601f3d908101601f191682016040526103999190810190611ad7565b6002546040516399900d1160e01b81526001600160a01b03838116600483015260609216906399900d11906024016113d4565b600080600080600080600080600089606001518060200190518101906114729190611f8c565b985098509850985098509850985098509850611495898989898989898989610503565b50505050505050505050565b6000602082840312156114b357600080fd5b81356001600160e01b0319811681146114cb57600080fd5b9392505050565b60005b838110156114ed5781810151838201526020016114d5565b50506000910152565b6000815180845261150e8160208601602086016114d2565b601f01601f19169290920160200192915050565b6020815260006114cb60208301846114f6565b634e487b7160e01b600052604160045260246000fd5b604080519081016001600160401b038111828210171561156d5761156d611535565b60405290565b60405160a081016001600160401b038111828210171561156d5761156d611535565b604051601f8201601f191681016001600160401b03811182821017156115bd576115bd611535565b604052919050565b60006001600160401b038211156115de576115de611535565b50601f01601f191660200190565b600082601f8301126115fd57600080fd5b813561161061160b826115c5565b611595565b81815284602083860101111561162557600080fd5b816020850160208301376000918101602001919091529392505050565b6000806040838503121561165557600080fd5b82356001600160401b038082111561166c57600080fd5b611678868387016115ec565b9350602085013591508082111561168e57600080fd5b5061169b858286016115ec565b9150509250929050565b6001600160a01b038116811461116e57600080fd5b80356116c5816116a5565b919050565b6000602082840312156116dc57600080fd5b81356114cb816116a5565b60008060008060008060008060006101208a8c03121561170657600080fd5b89356001600160401b038082111561171d57600080fd5b6117298d838e016115ec565b9a5060208c013591508082111561173f57600080fd5b61174b8d838e016115ec565b995060408c013591508082111561176157600080fd5b61176d8d838e016115ec565b985060608c013591508082111561178357600080fd5b61178f8d838e016115ec565b975060808c01359150808211156117a557600080fd5b506117b28c828d016115ec565b9550506117c160a08b016116ba565b93506117cf60c08b016116ba565b92506117dd60e08b016116ba565b91506117ec6101008b016116ba565b90509295985092959850929598565b60006101608d83528060208401526118158184018e6114f6565b90508281036040840152611829818d6114f6565b9050828103606084015261183d818c6114f6565b90508281036080840152611851818b6114f6565b905082810360a0840152611865818a6114f6565b905082810360c084015261187981896114f6565b6001600160a01b0388811660e08601528716610100850152915061189a9050565b6001600160a01b0384166101208301526001600160a01b0383166101408301529c9b505050505050505050505050565b6020815281516020820152600060208301516101608060408501526118f36101808501836114f6565b91506040850151601f198086850301606087015261191184836114f6565b9350606087015191508086850301608087015261192e84836114f6565b935060808701519150808685030160a087015261194b84836114f6565b935060a08701519150808685030160c087015261196884836114f6565b935060c08701519150808685030160e08701525061198683826114f6565b92505060e08501516101006119a5818701836001600160a01b03169052565b86015190506101206119c1868201836001600160a01b03169052565b86015190506101406119dd868201836001600160a01b03169052565b909501516001600160a01b031693019290925250919050565b600060208284031215611a0857600080fd5b81356001600160401b03811115611a1e57600080fd5b820160a081850312156114cb57600080fd5b606081526000611a4360608301866114f6565b8281036020840152611a5581866114f6565b9150508215156040830152949350505050565b600060208284031215611a7a57600080fd5b815180151581146114cb57600080fd5b600082601f830112611a9b57600080fd5b8151611aa961160b826115c5565b818152846020838601011115611abe57600080fd5b611acf8260208301602087016114d2565b949350505050565b600060208284031215611ae957600080fd5b81516001600160401b03811115611aff57600080fd5b611acf84828501611a8a565b604081526000611b1e60408301856114f6565b8281036020840152611b3081856114f6565b95945050505050565b60008951611b4b818460208e016114d2565b895190830190611b5f818360208e016114d2565b8951910190611b72818360208d016114d2565b8851910190611b85818360208c016114d2565b8751910190611b98818360208b016114d2565b6bffffffffffffffffffffffff19606097881b81169190920190815294861b811660148601529290941b909116602883015250603c019695505050505050565b600181811c90821680611bec57607f821691505b602082108103610bac57634e487b7160e01b600052602260045260246000fd5b601f821115611c5257600081815260208120601f850160051c81016020861015611c335750805b601f850160051c820191505b818110156104e357828155600101611c3f565b505050565b81516001600160401b03811115611c7057611c70611535565b611c8481611c7e8454611bd8565b84611c0c565b602080601f831160018114611cb95760008415611ca15750858301515b600019600386901b1c1916600185901b1785556104e3565b600085815260208120601f198616915b82811015611ce857888601518255948401946001909101908401611cc9565b5085821015611d065787850151600019600388901b60f8161c191681555b5050505050600190811b01905550565b60008251611d288184602087016114d2565b9190910192915050565b6000610100808352611d468184018c6114f6565b90508281036020840152611d5a818b6114f6565b90508281036040840152611d6e818a6114f6565b90508281036060840152611d8281896114f6565b90508281036080840152611d9681886114f6565b6001600160a01b0396871660a085015294861660c08401525050921660e09092019190915295945050505050565b6bffffffffffffffffffffffff198460601b16815260008351611dee8160148501602088016114d2565b835190830190611e058160148401602088016114d2565b0160140195945050505050565b80356001600160401b03811681146116c557600080fd5b600082601f830112611e3a57600080fd5b813560206001600160401b03821115611e5557611e55611535565b611e63818360051b01611595565b82815260069290921b84018101918181019086841115611e8257600080fd5b8286015b84811015611eca5760408189031215611e9f5760008081fd5b611ea761154b565b8135611eb2816116a5565b81528185013585820152835291830191604001611e86565b509695505050505050565b600060a08236031215611ee757600080fd5b611eef611573565b82358152611eff60208401611e12565b602082015260408301356001600160401b0380821115611f1e57600080fd5b611f2a368387016115ec565b60408401526060850135915080821115611f4357600080fd5b611f4f368387016115ec565b60608401526080850135915080821115611f6857600080fd5b50611f7536828601611e29565b60808301525092915050565b80516116c5816116a5565b60008060008060008060008060006101208a8c031215611fab57600080fd5b89516001600160401b0380821115611fc257600080fd5b611fce8d838e01611a8a565b9a5060208c0151915080821115611fe457600080fd5b611ff08d838e01611a8a565b995060408c015191508082111561200657600080fd5b6120128d838e01611a8a565b985060608c015191508082111561202857600080fd5b6120348d838e01611a8a565b975060808c015191508082111561204a57600080fd5b506120578c828d01611a8a565b95505061206660a08b01611f81565b935061207460c08b01611f81565b925061208260e08b01611f81565b91506117ec6101008b01611f8156fea26469706673582212202122ca4e592c86725a0a1af5cb8a64787ceb836fa6e098e5d5127eb82b05fae264736f6c63430008140033",
  "devdoc": {
    "kind": "dev",
    "methods": {
      "ccipReceive((bytes32,uint64,bytes,bytes,(address,uint256)[]))": {
        "details": "Note ensure you check the msg.sender is the OffRampRouter",
        "params": {
          "message": "CCIP Message"
        }
      },
      "getRouter()": {
        "returns": {
          "_0": "i_router address"
        }
      },
      "supportsInterface(bytes4)": {
        "params": {
          "interfaceId": "The interfaceId to check"
        },
        "returns": {
          "_0": "true if the interfaceId is supported"
        }
      }
    },
    "version": 1
  },
  "userdoc": {
    "kind": "user",
    "methods": {
      "ccipReceive((bytes32,uint64,bytes,bytes,(address,uint256)[]))": {
        "notice": "Called by the Router to deliver a message. If this reverts, any token transfers also revert. The message will move to a FAILED state and become available for manual execution."
      },
      "getRouter()": {
        "notice": "Return the current router"
      },
      "supportsInterface(bytes4)": {
        "notice": "IERC165 supports an interfaceId"
      }
    },
    "version": 1
  },
  "storageLayout": {
    "storage": [
      {
        "astId": 303,
        "contract": "contracts/StudioRegister.sol:StudioRegister",
        "label": "aliases",
        "offset": 0,
        "slot": "0",
        "type": "t_mapping(t_address,t_struct(Alias)288_storage)"
      },
      {
        "astId": 415,
        "contract": "contracts/StudioRegister.sol:StudioRegister",
        "label": "chain",
        "offset": 0,
        "slot": "1",
        "type": "t_string_storage"
      },
      {
        "astId": 418,
        "contract": "contracts/StudioRegister.sol:StudioRegister",
        "label": "_studioAlias",
        "offset": 0,
        "slot": "2",
        "type": "t_contract(StudioAlias)404"
      },
      {
        "astId": 470,
        "contract": "contracts/StudioRegister.sol:StudioRegister",
        "label": "studioMap",
        "offset": 0,
        "slot": "3",
        "type": "t_mapping(t_address,t_struct(Studio)441_storage)"
      }
    ],
    "types": {
      "t_address": {
        "encoding": "inplace",
        "label": "address",
        "numberOfBytes": "20"
      },
      "t_bool": {
        "encoding": "inplace",
        "label": "bool",
        "numberOfBytes": "1"
      },
      "t_bytes32": {
        "encoding": "inplace",
        "label": "bytes32",
        "numberOfBytes": "32"
      },
      "t_contract(StudioAlias)404": {
        "encoding": "inplace",
        "label": "contract StudioAlias",
        "numberOfBytes": "20"
      },
      "t_mapping(t_address,t_struct(Alias)288_storage)": {
        "encoding": "mapping",
        "key": "t_address",
        "label": "mapping(address => struct StudioAlias.Alias)",
        "numberOfBytes": "32",
        "value": "t_struct(Alias)288_storage"
      },
      "t_mapping(t_address,t_struct(Studio)441_storage)": {
        "encoding": "mapping",
        "key": "t_address",
        "label": "mapping(address => struct StudioRegister.Studio)",
        "numberOfBytes": "32",
        "value": "t_struct(Studio)441_storage"
      },
      "t_string_storage": {
        "encoding": "bytes",
        "label": "string",
        "numberOfBytes": "32"
      },
      "t_struct(Alias)288_storage": {
        "encoding": "inplace",
        "label": "struct StudioAlias.Alias",
        "members": [
          {
            "astId": 283,
            "contract": "contracts/StudioRegister.sol:StudioRegister",
            "label": "_alias",
            "offset": 0,
            "slot": "0",
            "type": "t_string_storage"
          },
          {
            "astId": 285,
            "contract": "contracts/StudioRegister.sol:StudioRegister",
            "label": "_avatarURI",
            "offset": 0,
            "slot": "1",
            "type": "t_string_storage"
          },
          {
            "astId": 287,
            "contract": "contracts/StudioRegister.sol:StudioRegister",
            "label": "isSet",
            "offset": 0,
            "slot": "2",
            "type": "t_bool"
          }
        ],
        "numberOfBytes": "96"
      },
      "t_struct(Studio)441_storage": {
        "encoding": "inplace",
        "label": "struct StudioRegister.Studio",
        "members": [
          {
            "astId": 420,
            "contract": "contracts/StudioRegister.sol:StudioRegister",
            "label": "studioId",
            "offset": 0,
            "slot": "0",
            "type": "t_bytes32"
          },
          {
            "astId": 422,
            "contract": "contracts/StudioRegister.sol:StudioRegister",
            "label": "studioName",
            "offset": 0,
            "slot": "1",
            "type": "t_string_storage"
          },
          {
            "astId": 424,
            "contract": "contracts/StudioRegister.sol:StudioRegister",
            "label": "thumbnailURI",
            "offset": 0,
            "slot": "2",
            "type": "t_string_storage"
          },
          {
            "astId": 426,
            "contract": "contracts/StudioRegister.sol:StudioRegister",
            "label": "avatarURI",
            "offset": 0,
            "slot": "3",
            "type": "t_string_storage"
          },
          {
            "astId": 428,
            "contract": "contracts/StudioRegister.sol:StudioRegister",
            "label": "chain",
            "offset": 0,
            "slot": "4",
            "type": "t_string_storage"
          },
          {
            "astId": 430,
            "contract": "contracts/StudioRegister.sol:StudioRegister",
            "label": "descriptiveText",
            "offset": 0,
            "slot": "5",
            "type": "t_string_storage"
          },
          {
            "astId": 432,
            "contract": "contracts/StudioRegister.sol:StudioRegister",
            "label": "creatorAlias",
            "offset": 0,
            "slot": "6",
            "type": "t_string_storage"
          },
          {
            "astId": 434,
            "contract": "contracts/StudioRegister.sol:StudioRegister",
            "label": "creator",
            "offset": 0,
            "slot": "7",
            "type": "t_address"
          },
          {
            "astId": 436,
            "contract": "contracts/StudioRegister.sol:StudioRegister",
            "label": "studioAddress",
            "offset": 0,
            "slot": "8",
            "type": "t_address"
          },
          {
            "astId": 438,
            "contract": "contracts/StudioRegister.sol:StudioRegister",
            "label": "nftAddress",
            "offset": 0,
            "slot": "9",
            "type": "t_address"
          },
          {
            "astId": 440,
            "contract": "contracts/StudioRegister.sol:StudioRegister",
            "label": "tokenAddress",
            "offset": 0,
            "slot": "10",
            "type": "t_address"
          }
        ],
        "numberOfBytes": "352"
      }
    }
  }
}